:400000000080002011000000C1080000C108000008B5044B1A6803F53F5302331A6000F057FC00BFFA46004010B5054C237833B9044B13B10448AFF300800123237010BD92
:400040009882FF1F00000000B0210000084B10B51BB108490848AFF300800848036803B910BD074B002BFBD0BDE81040184700BF000000009C82FF1FB0210000C880FF1FBE
:400080000000000008B501F073FE012802D1002001F02CFA08BD00BF08B5002000F078FF08BD00BF684620F007018D4619B572B6EFF311841E4B1B68DBB20F2B10D9103BB5
:4000C00023F0030202F1604202F564421168DB0003F01803E0229A400A4022FA03F306E00F2B03D1134B1B681B0E00E0002383F31188114A136801331360012B01D101F0A0
:40010000B5FE62B6FFF7C8FF72B684F3118801F039F9094A1368013B13601BB901F0AFFE01F073FE62B6BDE819408546704700BF04ED00E020ED00E02083FF1F08B562B6E0
:40014000074801F037FE45F6BF52064B1A60064A136843F002031360002001F00FFAFBE78500000014E000E010E000E008B500F0B3F900F07BF901F0B5FD032000F04AF9A2
:4001800001F060FA104A136843F00503136000F055F9012803D10D4801F0BEFD02E00C4801F0BAFD01221146002000F073FD022000F0FCFC032000F0F9FC012000F0F6FC48
:4001C00001F022FA08BD00BF10E000E0B4210000D021000008B500F023F9FCE738B5164B1B7813B9144B197801E04FF00101134B9A68197000215960022159705569936805
:4002000073B13DB90CE0996855F8240000F066FF013400E00024094B9B681A699442F2D3064B5B78022B03D1044883685B689847032000F00FF938BDD880FF1FF080FF1F31
:4002400030B585B04FF00003174A1288ADF80820ADF8002042F30722002A06DD124B1B88ADF80C30ADF804305300104A9168137000235360022353704D698B6873B13DB9C6
:400280000CE0996855F8240000F028FF013400E00024064B9B681A699442F2D3012000F0D9F805B030BD00BFCC80FF1FD880FF1F38B54FF00001154B5B68092B01D8134B40
:4002C0001978134B9A68197000215960022159705569936873B13DB90CE0996855F8240000F0FCFE013400E00024094B9B681A699442F2D3064B5B78022B03D10448836899
:400300005B689847022000F0A5F838BDD880FF1FE480FF1F70B582B0264B9B681A68002A3DD0244A128802A820F8082D1B6898470546E8B9BDF80010ADF804101D4B9A68C6
:4003400019800021596002219970566993683BB33EB925E0996856F8240000F0BFFE013400E00024134B9B681A699442F2D317E0104B03229A709B68DE69DB6883B13EB929
:400380000EE0D96856F8240000F0A8FE013400E00024084B9B689A699442F2D300E0002515B1054801F0B8FC002000F053F802B070BD00BFCC80FF1FEC21000000B583B0C4
:4003C00000230193032000F009FF01A9032000F065FE019800F034FE019A0221014800F0C1F8EFE73022000010B5084C22680221074800F09FF823680133236013F5807F93
:4004000001D90022226001F0FFF810BDB482FF1F4422000008B5002100F0A2FB002008BD08B5054B1B780F2B04D100F0B9FB0022014B1A70002008BDB882FF1F044B1B7815
:4004400003F0080303F0FF0003B10120704700BFC080FF1F012303FA00F0034A1378184310700020704700BFB882FF1F08B501F07DF901F08FF9002008BD00BF70B506467F
:400480000D46002001F08AF9002001F093F984B2012001F08FF980B2D4F5006400D50F3444F307143470D0F5006000D50F3040F307102870002070BD48B938B505460C4688
:4004C000084601F049FC034B5C55002038BD6FF013007047BC82FF1F38B50024254609E00021094B19552046FFF7E6FF00B105460134E4B2022CF3D901F0B6FB01F040FBC7
:4005000001F0CAFA284638BDBC82FF1F70B50E461546074C34F8100001F06CFA34F8160001F0DCFA34F8150001F04CFB002070BD58220000F8B506460F46154600240DE08A
:4005400006EBC4039A88B5FBF2F302FB13531BB956F83430002098470134A4B2BC42EFD30020F8BDF8B505460E461746002409E005EBC4035868384202D055F834309847FB
:400580000134A4B2B442F3D30020F8BD08B5037823B901210020FFF78FFF03E000210846FFF78AFF002008BD08B5017821B100221046FFF7ABFF04E0002211461046FFF7C6
:4005C000A5FF002008BD00BF10B582B004460DF106010DF10700FFF751FF9DF9073023709DF806306370002002B010BDFEE700BFF0B40022174611E050F82760F3B226F043
:40060000FF0608E001EB420511F812406D78A5550132013BDBB2002BF4D10137292FEBD9F0BC704708B50A46002101F0B8FD08BD38B50222274B1A80182327490B700E20B3
:400640000231088002310B70192502310D8002310B70224B1A7008224FF040231A70032103F5007319701E4B1B78DBB21D490B701D4B1A8041F25122023B1A8000240CE007
:400680001A4B1B7803F0010343EA440404F003044FF4F07001F09CFB013D0DB1032CEFD115B90320FFF7A2FF114B4FF480721A8007221A7000220F490A7048200231087058
:4006C0001A700222033B1A700B4A137843F00703137038BD80400040824000400043004008010049A146004022420040254200400440004006400040A2430040F8B5164B69
:400700001B78DBB2154E3478E4B2154F3D78EDB203F00701134A11701B090132137044F00303337045F003033B7003220E4B1A7040230E4A13700232137030220C4B1A7096
:40074000202203331A700A2000F000FA3D7034704422084B1A70F8BDCF010049F8460040F94600406E5800400D51004001590040205B00407658004008B501F005FD08BD88
:4007800038B572B63A4A137843F00403137000240CE0384D630019194A0011462A44084691882858FFF73EFF0134E4B2062CF0D900240BE02F49A3001819420088180622DA
:4007C000016BC06AFFF7D8FF0134E4B2002CF1D029494FF09040FFF70BFF04212748FFF721FF042226492748FFF7C6FF264A137843F0020313701032137843F002031370B6
:40080000224C237843F040032370A2F58632513A137843F01003137008221D491D48FFF7ABFF0A221C491D48FFF7A6FF08221C491C48FFF7A1FF08221B491C48FFF79CFF46
:400840001B4A137843F0080313701A4D61232B70FFF7EEFE81232B700122174B1A70FFF74DFF0E2221461548FFF786FF38BD00BFE846004000250000A80000480076004073
:40088000800A00480876004003500140A04300405C0A004802510040640A0048C0510040700A004812510040780A004822510040224300400048004004000840B04300401B
:4008C00008B501F035FC03680C2B00D1FEE7FEE708B5104E104D16E029686B68AC68002204E051F8040B43F8040B0432A242F8D1E868002203E0002143F8041B04328242A1
:40090000F9D11035013E002EE6D101F017FCFFF715FCFEE7010000007C27000008B5114A114B1A60114A136843F40073136000230AE0032B03D80E4A52F8231000E00D49EE
:400940000D4A42F8231001332F2BF2D90B4B1A780B4B1A70084A0B4B1A60FFF711FF00F013F808BD0004FA050CED00E014ED00E000000000C10800000080FF1FBC76004014
:40098000C080FF1F08ED00E00B4A7F2313708021517007E0DA0002F1804202F5F042013BDBB21370002BF5D1DB0003F1804303F5F04300221A707047FC80FF1F172815D866
:4009C00031B103010A495A5C42F020025A5405E0030107495A5C02F0DF025A540001044A835C43F00103835400207047012070471070004017280CD80001074BC1180A7919
:400A000042F004020A71C25C42F00102C254002070470120704700BF1070004017280BD80001064A835C03F0F103490001F00E01194381540020704701207047107000404A
:400A400041F6FF73994201D14FF4005141F6FF739A4201D14FF40052172808D8C00000F1804000F5EC408180C280002070470120704700BF172805D8034B03EB0010417223
:400A800000207047012070471070004017281BD810B4C00000F1804404F5EC44D201D2B201F07F01114321709DF804201201D2B203F00F03134363709DF8083003F00F0336
:400AC000A3700020E07001E00120704710BC704710B501F085F90A4B5B78182B0BD9084A1478013B5370E30003F1804303F5F0431B78137000E0FF2401F076F9204610BD66
:400B0000FC80FF1F10F0800F0CD111F4704F0BD1C00000F1804000F5F04001808270C37000207047012070470120704710F0800F08D1C00000F1804000F5F0408180C2800B
:400B4000002070470120704701BE704708B5034B1B7A00FB03F001F03BF908BD0481FF1F0E4B1A7802F0FC0200F00300104318701A7842F080021A701A7802F07F021A702D
:400B800049011A7801F0600102F09F02114319701A7842F010021A70704700BF834300400122014B1A7070478443004038B5EFF3108572B603284ED82D4B53F82030002BE9
:400BC0004BD02B4A013B42F820302A4B53F82030032B07D10222274B43F820200022264B43F8202000F03EFC244B1B68002B36D1234B1C6800F014FCB0F1FF3F31D0214BDE
:400C000053F82020204B1B689A422CD9B4F1FF3F03D00221174A42F824101C4A52F820201343194A13600022124B43F8202000F0B3FB174B53F820304BB10024144B43F847
:400C4000204040F0004001F023F920460CE001F01FF9002008E0032006E0042004E0002002E0002000E0002085F3108838BD00BF5081FF1FF481FF1FE082FF1F2083FF1F7A
:400C8000E081FF1FB0260000F882FF1F98260000C082FF1FF8B5EFF3108472B628BB00EB4005AB00184DEB5803EB4306B500174E75598D421BD34AB103EB43039E00134B71
:400CC0001E44B3689A4214D3954214D3A9B103010F4DEB589BB90301EE180127EF507260013900F087F800200AE0032008E0082006E0082004E0082002E0082000E0072051
:400D000084F31088F8BD00BF582600006C2600004883FF1F18B108B5C368984708BD704708B508B1406800E00020032816D80C4B53F8203093B10A4A013B42F82030094B50
:400D400053F82030032B07D10222064B43F820200022054B43F8202000F084FB08BD00BF5081FF1FF481FF1FE082FF1F18B1034640689B6801E00023184603281DD80F4A68
:400D800052F82020CAB10E4A52F82010032914D010B50C4C54F820201A4344F820200A4A52F82020134207D0012905D10222044B43F8202000F056FB10BD7047782600006F
:400DC000F481FF1FE082FF1FD082FF1F80B108B50378012B06D013B1032B06D008BDFFF79FFF08BDFFF7C2FF08BDFFF793FF08BD704700BF30B400EB40029300214AD258A7
:400E0000214B03EBC2035C68B4F1FF3F04D11E4B03EBC20250602DE01C4B03EB04139B6899420AD2184D05EBC2025060174A02EB04125B1A93601DE01C46144B03EB0413C1
:400E40009A68891ADB68B3F1FF3F05D00F4A02EB031292689142EFD2B3F1FF3F05D00B4A02EB031295686D1A9560084A02EB0414E0601C46054B03EB00108160C46030BC2B
:400E8000704700BF582600001881FF1F4883FF1F38B5394A02EBC0035C6852F83030013342F8303000EB40018A0034498A58934203D90022304B43F83020B4F1FF3F59D048
:400EC0002F4B03EB04139B68002B4ED1214600E019462B4B03EB0113DB68B3F1FF3F05D0274A02EB03129268002AF1D0244A02EB01114FF0FF32CA601F4A02EBC0004360F6
:400F0000B3F1FF3F07D01E4A02EB03139A68013A9A6000E02C4604EB44029300194A13441B7A7BB904EB44029300164A13445A68154B53F8223003EB83039A0013481044BE
:400F4000FFF744FF0E4B03EB0413DD68596821B101392046FFF74EFF03E024010022084B1A51B5F1FF3FD5D138BD054A02EB0414013BA36038BD00BF1881FF1F6C26000028
:400F80004883FF1F58260000682600004426000038B5EFF3108572B6002838D1FFF778FF204B1B68002B34D11F4B1C6800F038FAB0F1FF3F2FD01D4B53F820201C4B1B68BF
:400FC0009A422AD9B4F1FF3F03D00221194A42F82410194A52F820201343154A13600022144B43F8202000F0D7F9144B53F820304BB10024114B43F8204040F0004000F026
:4010000047FF20460AE000F043FF002006E0032004E0002002E0002000E0002085F3108838BD00BF2083FF1FE081FF1FB0260000F882FF1FF481FF1F98260000C082FF1F96
:40104000EFF3108372B6114A1168114A126882B9B1F1FF3F0FD00F4A52F821206AB110B40D4C54F8212022EA000044F82100002007E0022002E0022000E0012083F31088E2
:40108000704783F3108810BC704700BFE081FF1F2083FF1F78260000E082FF1F03280FD80B4B53F820306BB10A4B53F82030032B0AD059B1084B53F820300B60002070477A
:4010C0000320704701207047072070470E20704778260000F481FF1FE082FF1F38B5EFF3108472B6032853D8324B53F82030002B50D0314B53F82030032B4DD02F4D55F85B
:4011000020200A4345F820202D4A52F82020114244D0012B44D10222274B43F8202000F0A1F9284B1B68002B3CD1274B1D6800F077F9B0F1FF3F37D0244B53F82020244B8D
:401140001B689A4232D9B5F1FF3F03D002211A4A42F825101F4A52F8202013431C4A13600022154B43F8202000F016F91A4B53F820304BB10025184B43F8205040F000409B
:4011800000F086FE284612E000F082FE00200EE003200CE001200AE0072008E0002006E0002004E0002002E0002000E0002084F3108838BD78260000F481FF1FE082FF1FD3
:4011C000D082FF1F2083FF1FE081FF1FB0260000F882FF1F98260000C082FF1F38B5EFF3108472B6364B1D68364B1B68002B5DD1B5F1FF3F5CD0344B53F82530002B59D042
:40120000324B53F82530034256D1314B43F825000122304B43F825202F4B53F825002F490B6823EA00030B602D4B43F825202D4B53F82520224B1A6000F0F2F8B0F1FF3F3B
:4012400006D0294B53F82020244B1B689A420DD81B4B1868B0F1FF3F03D000221D4B43F8202040F0004000F013FE1AE00021194A42F82010184A52F820201343174A1360DA
:4012800000F08AF8164B53F8203043B10022144B43F8202040F0004000F0FAFD01E000F0F7FD00200A4B43F8250006E0022004E0022002E0012000E0002084F3108838BDCA
:4012C000E081FF1F2083FF1F78260000E082FF1FD082FF1FF481FF1F98260000F882FF1FC082FF1FE481FF1FB026000008B500F053F8084B53F8203043B10022054B43F8F7
:40130000202040F00040044B186008BD024B186008BD00BFC082FF1F2483FF1F10B500F07FF8124B1B68B0F1FF3F1AD0104A52F82010104A1268914213D9B3F1FF3F03D012
:4013400002240D4941F8234000210B4B43F820100A4B53F820301A43064B1A60FFF7C6FF10BD43F00043064A136010BDE081FF1FB0260000F882FF1FF481FF1F982600008F
:401380002483FF1F034B1B6813B10022014B1A60704700BF1483FF1FF0B4184B19880B0A174AD356B3F1FF3F01D1535601E008335BB2144D55F82320134850F82200134EDC
:4013C00056F8224045F82340114D2F6846F822702A60B4F1FF3F09D10E4A42F82340012202FA03F321EA0301044B19800A4B19680A4A42F820101860F0BC7047F482FF1F8D
:4014000038250000A081FF1F2883FF1F3081FF1FF082FF1F6081FF1FE081FF1FE481FF1F0C4B1A88130A0C49CB56B3F1FF3F01D18B5601E008335BB2B3F1FF3F06D0074A94
:4014400052F82320064B53F8220070474FF0FF30704700BFF482FF1F38250000A081FF1F2883FF1F30B4144B53F82020134C2368134951F823502560124C44F823004FF03C
:40148000FF3441F82340104951F82210A1420AD10E4951F820400E480188214301800D4941F8223002E0064840F82130064941F8223030BC704700BF4081FF1FF082FF1FC2
:4014C0003081FF1F2883FF1F6081FF1FB0260000F482FF1FA081FF1F0022014B1A60FEE71C83FF1F08B5FFF7F7FF00BF08B572B6FFF7F8FF10B150F8210070474FF0FF3099
:40150000704700BF0122014B1A60FEE71C83FF1F70B50546124B53F8306000241CE0104B03EBC50321465868FFF7E4FF0D4A52F82030013B42F820300B4B53F82030032BFB
:4015400007D10222084B43F820200022074B43F82020FFF787FF0134B442E0D370BD00BF382600005081FF1FF481FF1FE082FF1F18B908B5FFF7CCFF08BD7047194B1A4A79
:40158000DA621A4A9A631A4ADA63EFF3108272B6184B1B6813BB10B5044600F053F8164B1C600122134B1A602046FFF7E1FFFFF737FFB0F1FF3F0ED0104B53F82030104A06
:4015C00011680B43136000220E4B43F82020FFF7E3FE00F05DFC62B6FFF794FF82F31088072070470080FF1F511E0000151E0000A50000001C83FF1F5883FF1F98260000B6
:40160000F882FF1FF481FF1F08B5EFF3108272B6094B1968094B1B6833B94FF0FF30084B43F82100002000E0022010B9084600F088FC82F3108808BDE081FF1F2083FF1FB2
:401640002081FF1F10B5EFF3108472B600F0D0FB034A136843F07F43136084F3108810BD20ED00E010B541F6FF734FF480420121022000F061F9084C207041F6FF731A46A6
:401680000121042000F076F96070044800F090F9002000F093F910BD0083FF1FD117000070B52C4C2078FFF7A5F96078FFF7A2F9294B1B78FF2B03D1FFF70AFA264B1870D4
:4016C000254D2878062302460421FFF71BFA214E341DA4B2224645F6A0312878FFF726FA29783078FFF7C6F96B78FF2B02D1FFF7EFF96870184D6878072302460421FFF791
:4017000001FA164A92B221466878FFF70FFA114C69786078FFF7AEF901212078FFF74EF901216078FFF74AF900F05AFB0C4A137843F02003137000F057FB0A4B1A7842F08D
:4017400001021A701A7842F002021A700122064B1A6070BD0083FF1F2882FF1F4489FF1F946500407865004080E200E008B5074B9B6823B9FFF776FF0122044B9A6000F0CE
:40178000C5F8FFF78DFF024B1B7808BD0083FF1F6764004008B500F0C7F808BD044B1B7803F0FF020BB90028F8D01046704700BF67640040C0F10100034B33F91030034A4E
:4017C0001088181A00B270474489FF1F4C89FF1F704700BF08B50A280FD00C2802D0082806D102E04FF4805209E04FF4807206E00020FFF7A9F9002201E04FF4806200218B
:40180000094B198042F2107303FB02F303F6C413064A82FB0302DB17C3EBE223044A1360044B198008BD00BF4A89FF1FAD8BDB685089FF1F4C89FF1F10B500F0D1FA04467D
:40184000184A137843F0010313701032137843F00103137002F5AA520832137843F0030313701822104B1A70013B1A7842F040021A701A7802F0FC021A70C822053B1A701B
:401880000222A3F597530C3B1A70084A137843F0080313700A20FFF759F9204600F0A4FA10BD00BFAB43004006590040275B004010B504460A280DD00C2802D0082804D169
:4018C00001E0C22207E0422205E00020FFF73CF9C22200E08222034B1A702046FFF77AFF10BD00BF0259004008B5064A137843F0060313700C20FFF7DBFF0022024B1A8010
:4019000008BD00BF015900404889FF1F08B5054B1B7823B9FFF7E8FF0122024B1A70FFF78BFF08BD0C83FF1F024A137843F001031370704700590040F0B583B016461F46DB
:401940000B4C012525700023019300932B460A4601462846FFF79AF83A4631462078FFF76FF802212078FFF759F8207803B0F0BD2A82FF1FF0B583B016461F460B4D002448
:401980002C700194009423460A4601462046FFF77DF83A4631462878FFF752F802212878FFF73CF8287803B0F0BD00BF2B82FF1F014B1B681864704708ED00E04001C0B2B9
:4019C000014B1870704700BF00E400E0024A137843F08003137070477E640040014B1880704700BF14680040014B1880704700BF94680040014B1880704700BF54680040EE
:401A0000014B1870704700BF8A640040014B1878704700BF6A640040014B188880B27047B468004008B501E0FFF7F6FFFFF7EEFF10F0100FF8D108BD10B5154A137803F0E2
:401A4000C00343F009031370124C237843F0010323701D32137843F0010313704FF6FF70FFF7BCFF4FF6FF70FFF7BEFF0020FFF7C1FF0020FFF7C4FF00F0B2F9237843F0A6
:401A80001003237000F0B0F9FFF7CCFF10BD00BF7E6400409A64004008B5054B1B7823B9FFF7CAFF0122024B1A70FFF78FFF08BD0D83FF1F024A137843F080031370704747
:401AC0007F640040014B1880704700BF1C680040014B1880704700BF9C680040014B1880704700BF5C680040014B1870704700BF8F640040014B1878704700BF6F640040C7
:401B0000014B188880B27047BC68004008B501E0FFF7F6FFFFF7EEFF10F0100FF8D108BD10B5154A137803F0C00343F0090313701F32137843F001031370104C237843F06C
:401B4000010323704FF6FF70FFF7BCFF4FF6FF70FFF7BEFF0020FFF7C1FF0020FFF7C4FF00F03EF9237843F01003237000F03CF9FFF7CCFF10BD00BF7F6400409F640040E0
:401B800008B5054B1B7823B9FFF7CAFF0122024B1A70FFF78FFF08BD0E83FF1F024A137843F08003137070477D640040014B1880704700BF18680040014B1880704700BF9C
:401BC00098680040014B1880704700BF58680040014B1870704700BF8E640040014B1878704700BF6E640040014B188880B27047B868004008B501E0FFF7F6FFFFF7EEFFCA
:401C000010F0100FF8D108BD08B5154A137803F0C00343F0090313701F32137843F0010313700132137843F0010313704FF6FF70FFF7BCFF4FF6FF70FFF7BEFF0020FFF7E8
:401C4000C1FF0020FFF7C4FF00F0CAF8054A137843F01003137000F0C7F8FFF7CBFF08BD7D6400409E64004008B5054B1B7823B9FFF7CAFF0122024B1A70FFF78FFF08BD61
:401C80000F83FF1F7222084B1A702022A3F203131A7006225F3B1A70472210331A70002203F5A7731A7070478B65004010B500F097F804460A4A137843F020031370A2F28B
:401CC0000312137843F010031370FF32137843F01003137000F032F8204600F085F810BD9B65004008B5054B1B7823B9FFF7CAFF0122024B1A70FFF7D9FF08BD1083FF1F83
:401D0000034B1B7813F0040FFAD1024B18707047676500404965004038B5074B1B782BB938BDFFF7EDFF0134A4B201E005460024285D0028F5D138BD1083FF1F054A137800
:401D400043F0040313701032137843F004031370704700BFA2430040044A137803F0BF03800100F0400018431070704700510040024B1878C0F3C000704700BF01510040C7
:401D8000014B1B681865704708ED00E04001C0B2014B1870704700BF04E400E01022014B1A60704700E100E01022014B1A60704780E100E010B50446FFF7F6FF2046FFF7D0
:401DC000DFFF0720FFF7E2FFFFF7E8FF10BD00BF0230800803D000BF01380046FCD17047EFF3108072B6704780F31088704700BF18484FF47F0102680A43026016486FF084
:401E00007F4102680A400260704714484FF080510160704772B611484FF000610160FFF77DFA0F48006800F0C3F858B10C4800684FF080730B4A0C490FB40FB46FF00600AC
:401E4000004700BF6FF0060062B6004762B600DF08B0704720ED00E01CED00E004ED00E02483FF1F911E00004D1E0000EFF30880054908600548006880F3088870470248D3
:401E8000006880F3088870472C82FF1F1C82FF1F411C8900154A11440968154A136899421AD0F0B444464D4656465F46F0B400B5104C9B002344EFF308851D60116089002F
:401EC0002144096881F3088802BC8E46F0BCA046A946B246BB46F0BC002806DB00B500F05BF802BC8E46FFF7D3BF7047E0260000FC82FF1F2082FF1FF0B444464D465646BF
:401F00005F46F0B400B5EFF3038308B48000174901440968164A0244EFF30883136088471448804704BC4FF08070024382F3038801BC8646F0BCA046A946B246BB46F0BC8E
:401F4000704780000A4901440A6882F3088804BC4FF08070024382F3038808BC9E46F0BCA046A946B246BB46F0BC7047C02600003883FF1F791F000008B572B6014B18685A
:401F8000FFF7DFFFE081FF1F08B5024B1868FFF7B3FF08BDE081FF1F08B562B6FFF7F4FF72B600F041F8014B186808BD2483FF1F00280BDA20F000400130054B53F82000AA
:401FC000044B1B68181A18BF0120704701207047E0260000FC82FF1F054B53F82020054B53F820309A4201D101207047002070475081FF1F8826000008B5FFF7CDF9084B28
:4020000053F8203043B10022054B43F8202040F00040044B186008BD024B186008BD00BFC082FF1F2483FF1F38B5364B1C680022354B1A60354A52F82430013342F82430CD
:40204000334B53F824502046FFF7C6FF012801D0A54204D103222F4B43F8242003E002222C4B43F824202C4B53F824102B4A136823EA010313602A4B53F82440214B1C60BB
:40208000B5F1FF3F0FD0234B53F82530032B07D10222204B43F825200022224B43F825202846FFF7DFF9FFF7BBF9B0F1FF3F0BD1B4F1FF3F03D00022164B43F8242044F09E
:4020C0000044194B1C6038BD184B53F82020134B1B689A4208D800220E4B43F8242044F00044114B1C6038BD00210A4A42F82010094A52F820201343084A1360FFF77CFFB5
:4021000038BD00BFE081FF1F1483FF1F5081FF1F2081FF1FF481FF1F98260000F882FF1FE481FF1FE082FF1F2483FF1FB0260000014B1868704700BF9082FF1F0E4B70B592
:402140001E460E4C0025E41AA410A54204D056F8253098470135F8E700F0FEFA084B094C1E46E41AA4100025A54204D056F8253098470135F8E770BD642700006427000018
:40218000642700006C27000010B5431E0A44914204D011F8014B03F8014FF8E710BD03460244934202D003F8011BFAE770470000000000000D0A5265736574206279205729
:4021C00061746368446F672054696D65720000000D0A526573657420627920506F7765724F6E205265736574000000000D0A4661696C7572653A204A6F79737469636B2039
:402200006472697665722076616C7565206E6F742075706461746564206F6E20534F5F4A4F59535449434B5F7369676E616C00004102000001000000DD01000002000000CE
:4022400002000000150300000A000000B102000064000000020000000000010001000100010001000100010001000200020002000200020002000200020002000200020003
:4022800002000300030003000300030003000300040004000400040004000400050005000500050005000600060006000600070007000700080008000800090009000A0075
:4022C0000A000A000B000B000C000C000D000D000E000F000F00100011001100120013001400150016001700180019001A001B001C001D001F00200021002300240026003D
:40230000280029002B002D002F0031003400360038003B003D0040004300460049004C004F00530057005B005F00630067006C00700075007B00800086008C009200980017
:402340009F00A600AD00B500BD00C500CE00D700E100EB00F50000010B011701240130013E014C015B016A017A018B019C01AF01C201D601EA01000217022E024702610230
:402380007C029802B502D402F402160339035D038303AB03D50300042D045D048E04C204F80430056B05A805E8052B067106BA0606075607A90700085B08B9081C09830939
:4023C000EF09600AD50A500BD10B560CE20C740D0D0EAC0E520F0010B510731138120713DF13C014AB15A116A117AD18C419E91A1A1C581DA51E00206B21E52271240E261D
:40240000BD278029562B412D422F5A318933D1353338B03A493D0040D542CB45E2481C4C7A4FFF52AC56825A845EB3621267A26B66706075927A0080AA85958BC391379870
:40244000F59EFEA558AD04B508BD66C524CE44D7CCE0C0EA25F5FFFF000000008D05000000000000000000000000000000000000000000000000000000000000000000006B
:4024800000000000A905000000000000000000000000000000000000000000000000000000000000000000000000000000000000020000000000000001000000D024000077
:4024C0000000000000000000000000000000000003000000C905000000000000010000000000000001000000FC2400000000000000000000000000000000000003000000E6
:40250000305100404000F0510040100000000140001000140140000800400140000A004C01400002005001402000000060520040540A004806000000FF00010102020202E9
:402540000303030303030303040404040404040404040404040404040505050505050505050505050505050505050505050505050505050505050505060606060606060633
:402580000606060606060606060606060606060606060606060606060606060606060606060606060606060606060606060606060606060606060606070707070707070793
:4025C000070707070707070707070707070707070707070707070707070707070707070707070707070707070707070707070707070707070707070707070707070707071B
:4026000007070707070707070707070707070707070707070707070707070707070707070707070707070707070707070707070707070707070707070100000040260000AB
:402640000000000000000000020000000000000000000000FFFFFFFF0000000000000000000000000000000000000000102700000100000000000000000000000000000024
:4026800000000000010000000100000001000000010000000100000001000000010000001000000004000000010000000200000001000000010000001000000004000000E6
:4026C0006D010000D5010000E9030000BD030000891F0000891F0000891F0000891F00000000000000000000000000000000000001000000616C726D5F316D73000000002D
:4027000065765F6A6F79737469636B5F6F6E44617461000065765F73706565645F6F6E446174610074736B5F696E69740000000074736B5F6261636B67726F756E64000002
:4027400074736B5F696F000074736B5F636F6E74726F6C0043000000F8B500BFF8BC08BC9E4670474D0000001D090000F8B500BFF8BC08BC9E46704729000000902700008A
:40278000C880FF1FD0010000C006000000000000000000000000000000000000D42400000000000000000000A82400000000000000000000802400000000000000000000B4
:4027C000582400007F800000030000000000E02EC05D00001800000000366E01F426000000000000FFFFFFFFFFFFFFFFFFFFFFFFFFFFFFFFFFFFFFFF01000000020000006A
:4028000003000000FFFFFFFF0000000000000000040000000200000001000000010000000100000001000000FFFFFFFFFFFFFFFFFFFFFFFFFFFFFFFFFFFFFFFFFFFFFFFFA7
:40284000FFFFFFFFFFFFFFFFFFFFFFFFFFFFFFFFFFFFFFFFFFFFFFFFFFFFFFFFFFFFFFFFFFFFFFFFFFFFFFFFFFFFFFFFFFFFFFFFFFFFFFFFFFFFFFFFFFFFFFFFFFFFFFFF98
:40288000FFFFFFFFFFFFFFFFFFFFFFFFFFFFFFFFFFFFFFFFFFFFFFFFFFFFFFFFFFFFFFFFFFFFFFFFFFFFFFFFFFFFFFFFFFFFFFFFFFFFFFFFFFFFFFFFFFFFFFFF0300000051
:4028C0000300000003000000030000000027000014270000242700003027000040270000482700004489FF1F000000001C87FF1FFFFFFFFF0000000000000000000000004D
:40290000000000000000000000000000000000000000000000000000542700000000000000000000000000000000000000000000000000000000000000000000000000001C
:402940000000000000000000000000000000000000000000000000003082FF1F00000000000000000000000000000000000000000000000000000000000000000000000087
:402980000000000000000000000000000000000000000000000000000000000000000000000000000000000000000000000000000000000000000000000000000000000017
:4029C00000000000000000000000000000000000000000000000000000000000000000000000000000000000000000000000000000000000000000000000000000000000D7
:402A00000000000000000000000000000000000000000000000000000000000000000000000000000000000000000000000000000000000000000000000000000000000096
:402A40000000000000000000000000000000000000000000000000000000000000000000000000000000000000000000000000000000000000000000000000000000000056
:020000040003F7
:0200000480007A
:400000000145004003520040015B00400464004003650040010101401802014024030140080401402C05014013060140350701405D0801403C0901403A0A0140420B0140DE
:40004000420C0140330D01404A0E0140280F01401D1401404315014025160140401701404E180140461901402E1A0140431B01400A400140054101400742014003430140AE
:40008000024401400745014007460140044701400448014001490140024C01400A4D01400A500140025101400301000110381110278488388A0D8E0D8F0D8401870F8B72E5
:4000C000E004070108010C010D0110011101140115011F01200125012A012C012D0131013401580459045C115F01D804D904DC11DF0100400120044007080A400E400F10D7
:400100001090120A13181540160817421F202780281129202C112E40308032083340360A374238403A103C403E088A128E40C0C3C238C4DFCA5ECCDACE5C580459045C11B7
:400140005F01D804D904DC11DF0100400120044005200A600E400F10120A130814401540170A284129202C112D202E40301032083340360A374238403C4093109440954067
:40018000964098109B409D209E089F08A60AAB20AF80B308B520C0C3C23CC4B7CA7DCCDECE18580459045C115F018202830186018B02B001B101B202B302D401D804D904D3
:4001C000DB0EDC11DD10DF01004A012004400520060C0A600E400F08120A1308172A1A601B0D20402208232028402B052C102E402F0830103208360A384039113A043C4011
:400200003E085B807904814082108C4094409540966098509B029D209E089F08A60AC0CFC25CC477CA7DCCC6CE5FD608DE02E404EE04022006080A01121016081A041B03E6
:400240001D011E10220228012E203010322033013403360C37023E454025410642044401460C47E0482449FF4AFF4BFF4C624DA04EF04F41500C54185804590C5A045B04F6
:400280005C195D225F016640670269106A306B106D106E106F12830384078618870588328A0C8B018F02923099069B019C079E389F06A220A60DB23CB403B707B820BA089C
:4002C000BB80BE10C002C604C9FFCA07CBFFCC40CD20CEF0CF05D008D804D904DA04DC22DD02DF01E040E1A8E240E3200014040205180A800B010C400D280E010F801290F3
:400300001641172018101A241D901F05214023012640272032503510364038843A103B0142044440458047104D204E0250405290560157405E02670A7D80800882048921BE
:400340008C2090409A409C209E20A604C076C2F9C4DCCC3CCE0FD0B4D230D680D830DE10E040EE041701230133013F044060410149FF4AFF4BFF4DA04F04501854055804DC
:4003800059045A045B045C115F01604062C06440654066C068C06AC06CC06EC0C060C101C5D0C610C720C82AC9FFCAFFCBFFCDAFCE0FCF04D018D608D804D904DA04DB0490
:4003C000DC11DD90DF01E040E2C0E440E540E6C0E8C0EAC0ECC0EEC00004030104040620070108600A400F8010041101142415011740220428242A022D012E203048334116
:40040000342436043741384039013A203C403E403F8042024602480C4C084D025602571059025A885D8066409101928099809B419C209E20A004A340A604A710AE04B1018C
:40044000B502B740C0A5C21BC4FACAA7CCFBCE1DD018D224D61BD810E812EC804030410649FF4AFF4BFF4DA04F045018580459045A045C115F01604062C06440654066C03F
:4004800068C06AC06CC06EC0830886018D01960297029B02A602A705AA01B002B104B302B401B508B701BF04C020C106C5D0C610C702C81AC9FFCAFFCBFFCDAFCE0FCF04D6
:4004C000D018D280D804D904DA04DB04DF01E040E2C0E440E540E6C0E8C0EAC0ECC0EEC000080420062007010B201204130814281501174019021A042044225423082A0444
:400500002B102D012E20321834283604374138423F804004470849014A084E0850205208531070018B018C108F40960899809D01A004A420C0E4C204C4F6CAA2CCF6CE1963
:40054000D044D224E460120113021B01250126022A0132023502360137014040410349FF4AFF4BFF4DA04F04501852805405580459045A045B045F01604062C06440654043
:4005800066C068C06AC06CC06EC08E0196049901A601AB01AE02B002B204B401B701BE10C040C103C5D0C620C701C81AC9FFCAFFCBFFCDAFCE0FCF04D018D280D405D804A1
:4005C000D904DA04DB04DF01E040E2C0E440E540E6C0E8C0EAC0ECC0EEC0044009020C08102816201740180119081C401D021E2820082240264029082C0830223610404094
:400600004220450246204D015408562059015A885D015E887002774081808C01C080C228C4A6CA22CC25D0C3D6DB000405010A080C0216101A011E0222042401280829016F
:40064000341F3501382039203E103F1056025736580459045B0E5C115D105F01D804D904DC11DF0100200242032105200640070109800AD40E4010101151122913081480C0
:400680001510170819301B20200428982A012D202E403110324A3480362A38403A043C40580860046815690171807204790483089040914492509501960498089A449B08B3
:4006C0009D20A20AA415A580AA04AD80B106B208B320C0DFC21FC47FCA37CCFFCE1AD602D804DE02E004EA09EC20580459045C115F018080824084208610870488088E0477
:40070000901092209440968098019C029F02A004A501A601AA08AE02B102B2FFB301B504BA80BE04BF04D401D804D904DB04DC12DD20DF01006A01100440052007200980F6
:400740000A640B140E400F9010101101120A1328150217081A1221012206230829202B602C102D202E4030103180320A360A38403A403B143C403F1059825A085B1082022F
:40078000831084088601892090409140926095159D209F08A208A405A602AF80C0EFC23FC43FCA77CCCFCE3ED60FE001E204E402E608EA0201EF050C09820D0813C3150C80
:4007C00017E319E31B0C21412310250429C32D0F2FE031C0330F3510372039803B0852035302580459045B045C215D105F018040844185078630871889068B098D078F085C
:40080000902492409470960999149A0C9B099C319E449F10A050A402AB0BB003B301B47CB51EB802BB20BF04C026C101C5BEC6C0C80BC9FFCAFFCBFFCEF0CF44D00CD804C4
:40084000D904DA04DC22DD02DF01E6C0EA40EB0200040280044006240AA40B010C400F40108012101428150319101A842004231024022601271429202A102C242E42325089
:4008800036063710382439803C883D013E10400441484210488049204B0850106D806EA080108204850186108B40904091809220930194069502968198289A109D089E2019
:4008C0009F10A280A568A603AF20C0ECC29FC46CCAF4CCECCEFED00CD204E020290133013F04580459045C115F01805C811282A1830C8418853F8808893F8C1091019404AB
:400900009524970A987C9A829EA3A0FFA508A604A730A8E7AA18B098B101B240B306B41FB538B638BA22BE04D602D711D804D904DB04DC22DD20DF010040020405410728EF
:40094000082A0B900E2A10811340150217141C101D011E4922042528260B282229102E0830C13608370138403A043B103E164404452046085C106E146F01746475407728FD
:400980008080860489088A129040910293C09641982899109A049B149C449D089E02A464A528A606AF10B260B344C0F3C2EEC479CA4ECCC9CEEED620E408EAA1ECA01108B4
:4009C000168030803B023E808104C430CC10CE60E020511057809702A480D46054889702A480AB80AD10EA40EE20A408AB01EE208E04E4085704640166049A04D402D601F8
:400A0000D8011B042502AC01B704C608C801E8024401A102AB04D0042080AC08C840EA40B0409C01A1021040740184018840A902B001C408DE04E201EC040007010108028B
:400A40000A020C070D010E0310061A061C060003100A000080800000400000000840400000030300800040808000800000000000000B0B00000000000038380038000000F7
:400A80000001000000000000000000000000000000000000000000000000000000000000000000000000000000000000000000000000000000000000000000000000000035
:400AC00000000000000000000000000000000000000000000000000000000000000000000000000000000000000000000000000000000000000000000000000000000000F6
:400B000000000000000000000000000000000000000000000000000000000000000000000000000000000000000000000000000000000000000000000000000000000000B5
:400B40000000000000000000000000000000000000000000000000000000000000000000000000000000000000000000000000000000000000000000000000000000000075
:400B80000000000000000000000000000000000000000000000000000000000000000000000000000000000000000000000000000000000000000000000000000000000035
:0200000490006A
:0400000000004005B7
:0200000490105A
:04000000BC90ACAF55
:0200000490303A
:02000000BAEE56
:0200000490402A
:4000000000000000000000000000000000000000000000000000000000000000000000000000000000000000000000000000000000000000000000000000000000000000C0
:400040000000000000000000000000000000000000000000000000000000000000000000000000000000000000000000000000000000000000000000000000000000000080
:400080000000000000000000000000000000000000000000000000000000000000000000000000000000000000000000000000000000000000000000000000000000000040
:4000C0000000000000000000000000000000000000000000000000000000000000000000000000000000000000000000000000000000000000000000000000000000000000
:0200000490501A
:0C00000000012E16106900012E27CB57BE
:00000001FF